{
	"Account.sol": {
		"Account": {
			"abi": [
				{
					"inputs": [],
					"stateMutability": "nonpayable",
					"type": "constructor"
				},
				{
					"stateMutability": "payable",
					"type": "fallback"
				},
				{
					"inputs": [],
					"name": "deposit",
					"outputs": [],
					"stateMutability": "payable",
					"type": "function"
				},
				{
					"inputs": [
						{
							"internalType": "address",
							"name": "add",
							"type": "address"
						}
					],
					"name": "getAddressBalance",
					"outputs": [
						{
							"internalType": "uint256",
							"name": "",
							"type": "uint256"
						}
					],
					"stateMutability": "view",
					"type": "function"
				},
				{
					"inputs": [],
					"name": "getBalance",
					"outputs": [
						{
							"internalType": "uint256",
							"name": "",
							"type": "uint256"
						}
					],
					"stateMutability": "view",
					"type": "function"
				},
				{
					"inputs": [],
					"name": "getBankBalance",
					"outputs": [
						{
							"internalType": "uint256",
							"name": "",
							"type": "uint256"
						}
					],
					"stateMutability": "view",
					"type": "function"
				},
				{
					"inputs": [
						{
							"internalType": "address",
							"name": "add",
							"type": "address"
						},
						{
							"internalType": "uint256",
							"name": "amount",
							"type": "uint256"
						}
					],
					"name": "pay",
					"outputs": [],
					"stateMutability": "payable",
					"type": "function"
				},
				{
					"inputs": [
						{
							"internalType": "uint256",
							"name": "amount",
							"type": "uint256"
						}
					],
					"name": "withdraw",
					"outputs": [],
					"stateMutability": "payable",
					"type": "function"
				},
				{
					"stateMutability": "payable",
					"type": "receive"
				}
			],
			"devdoc": {
				"kind": "dev",
				"methods": {},
				"version": 1
			},
			"evm": {
				"assembly": "    /* \"Account.sol\":73:1641  contract Account {... */\n  mstore(0x40, 0x80)\n    /* \"Account.sol\":158:209  constructor() {... */\n  callvalue\n  dup1\n  iszero\n  tag_1\n  jumpi\n  0x00\n  dup1\n  revert\ntag_1:\n  pop\n    /* \"Account.sol\":191:201  msg.sender */\n  caller\n    /* \"Account.sol\":183:188  owner */\n  0x00\n  dup1\n    /* \"Account.sol\":183:201  owner = msg.sender */\n  0x0100\n  exp\n  dup2\n  sload\n  dup2\n  0xffffffffffffffffffffffffffffffffffffffff\n  mul\n  not\n  and\n  swap1\n  dup4\n  0xffffffffffffffffffffffffffffffffffffffff\n  and\n  mul\n  or\n  swap1\n  sstore\n  pop\n    /* \"Account.sol\":73:1641  contract Account {... */\n  dataSize(sub_0)\n  dup1\n  dataOffset(sub_0)\n  0x00\n  codecopy\n  0x00\n  return\nstop\n\nsub_0: assembly {\n        /* \"Account.sol\":73:1641  contract Account {... */\n      mstore(0x40, 0x80)\n      jumpi(tag_1, lt(calldatasize, 0x04))\n      shr(0xe0, calldataload(0x00))\n      dup1\n      0x12065fe0\n      eq\n      tag_3\n      jumpi\n      dup1\n      0x2e1a7d4d\n      eq\n      tag_4\n      jumpi\n      dup1\n      0x35046722\n      eq\n      tag_5\n      jumpi\n      dup1\n      0x7b83b50b\n      eq\n      tag_6\n      jumpi\n      dup1\n      0xc4076876\n      eq\n      tag_7\n      jumpi\n      dup1\n      0xd0e30db0\n      eq\n      tag_8\n      jumpi\n      jump(tag_2)\n    tag_1:\n      jumpi(tag_2, calldatasize)\n        /* \"Account.sol\":1538:1547  msg.value */\n      callvalue\n        /* \"Account.sol\":1519:1522  map */\n      0x01\n        /* \"Account.sol\":1519:1534  map[msg.sender] */\n      0x00\n        /* \"Account.sol\":1523:1533  msg.sender */\n      caller\n        /* \"Account.sol\":1519:1534  map[msg.sender] */\n      0xffffffffffffffffffffffffffffffffffffffff\n      and\n      0xffffffffffffffffffffffffffffffffffffffff\n      and\n      dup2\n      mstore\n      0x20\n      add\n      swap1\n      dup2\n      mstore\n      0x20\n      add\n      0x00\n      keccak256\n      0x00\n        /* \"Account.sol\":1519:1547  map[msg.sender] += msg.value */\n      dup3\n      dup3\n      sload\n      tag_11\n      swap2\n      swap1\n      tag_12\n      jump\t// in\n    tag_11:\n      swap3\n      pop\n      pop\n      dup2\n      swap1\n      sstore\n      stop\n        /* \"Account.sol\":73:1641  contract Account {... */\n    tag_2:\n        /* \"Account.sol\":1621:1630  msg.value */\n      callvalue\n        /* \"Account.sol\":1602:1605  map */\n      0x01\n        /* \"Account.sol\":1602:1617  map[msg.sender] */\n      0x00\n        /* \"Account.sol\":1606:1616  msg.sender */\n      caller\n        /* \"Account.sol\":1602:1617  map[msg.sender] */\n      0xffffffffffffffffffffffffffffffffffffffff\n      and\n      0xffffffffffffffffffffffffffffffffffffffff\n      and\n      dup2\n      mstore\n      0x20\n      add\n      swap1\n      dup2\n      mstore\n      0x20\n      add\n      0x00\n      keccak256\n      0x00\n        /* \"Account.sol\":1602:1630  map[msg.sender] += msg.value */\n      dup3\n      dup3\n      sload\n      tag_15\n      swap2\n      swap1\n      tag_12\n      jump\t// in\n    tag_15:\n      swap3\n      pop\n      pop\n      dup2\n      swap1\n      sstore\n      stop\n        /* \"Account.sol\":1166:1256  function getBalance() public view returns (uint) {... */\n    tag_3:\n      callvalue\n      dup1\n      iszero\n      tag_16\n      jumpi\n      0x00\n      dup1\n      revert\n    tag_16:\n      pop\n      tag_17\n      tag_18\n      jump\t// in\n    tag_17:\n      mload(0x40)\n      tag_19\n      swap2\n      swap1\n      tag_20\n      jump\t// in\n    tag_19:\n      mload(0x40)\n      dup1\n      swap2\n      sub\n      swap1\n      return\n        /* \"Account.sol\":309:745  function withdraw(uint amount) external payable {... */\n    tag_4:\n      tag_21\n      0x04\n      dup1\n      calldatasize\n      sub\n      dup2\n      add\n      swap1\n      tag_22\n      swap2\n      swap1\n      tag_23\n      jump\t// in\n    tag_22:\n      tag_24\n      jump\t// in\n    tag_21:\n      stop\n        /* \"Account.sol\":1264:1365  function getAddressBalance(address add) public view returns (uint) {... */\n    tag_5:\n      callvalue\n      dup1\n      iszero\n      tag_25\n      jumpi\n      0x00\n      dup1\n      revert\n    tag_25:\n      pop\n      tag_26\n      0x04\n      dup1\n      calldatasize\n      sub\n      dup2\n      add\n      swap1\n      tag_27\n      swap2\n      swap1\n      tag_28\n      jump\t// in\n    tag_27:\n      tag_29\n      jump\t// in\n    tag_26:\n      mload(0x40)\n      tag_30\n      swap2\n      swap1\n      tag_20\n      jump\t// in\n    tag_30:\n      mload(0x40)\n      dup1\n      swap2\n      sub\n      swap1\n      return\n        /* \"Account.sol\":1373:1473  function getBankBalance() public view returns (uint) {... */\n    tag_6:\n      callvalue\n      dup1\n      iszero\n      tag_31\n      jumpi\n      0x00\n      dup1\n      revert\n    tag_31:\n      pop\n      tag_32\n      tag_33\n      jump\t// in\n    tag_32:\n      mload(0x40)\n      tag_34\n      swap2\n      swap1\n      tag_20\n      jump\t// in\n    tag_34:\n      mload(0x40)\n      dup1\n      swap2\n      sub\n      swap1\n      return\n        /* \"Account.sol\":753:1158  function pay(address add, uint amount) external payable {... */\n    tag_7:\n      tag_35\n      0x04\n      dup1\n      calldatasize\n      sub\n      dup2\n      add\n      swap1\n      tag_36\n      swap2\n      swap1\n      tag_37\n      jump\t// in\n    tag_36:\n      tag_38\n      jump\t// in\n    tag_35:\n      stop\n        /* \"Account.sol\":217:301  function deposit() external payable  {... */\n    tag_8:\n      tag_39\n      tag_40\n      jump\t// in\n    tag_39:\n      stop\n        /* \"Account.sol\":1166:1256  function getBalance() public view returns (uint) {... */\n    tag_18:\n        /* \"Account.sol\":1209:1213  uint */\n      0x00\n        /* \"Account.sol\":1233:1236  map */\n      0x01\n        /* \"Account.sol\":1233:1248  map[msg.sender] */\n      0x00\n        /* \"Account.sol\":1237:1247  msg.sender */\n      caller\n        /* \"Account.sol\":1233:1248  map[msg.sender] */\n      0xffffffffffffffffffffffffffffffffffffffff\n      and\n      0xffffffffffffffffffffffffffffffffffffffff\n      and\n      dup2\n      mstore\n      0x20\n      add\n      swap1\n      dup2\n      mstore\n      0x20\n      add\n      0x00\n      keccak256\n      sload\n        /* \"Account.sol\":1226:1248  return map[msg.sender] */\n      swap1\n      pop\n        /* \"Account.sol\":1166:1256  function getBalance() public view returns (uint) {... */\n      swap1\n      jump\t// out\n        /* \"Account.sol\":309:745  function withdraw(uint amount) external payable {... */\n    tag_24:\n        /* \"Account.sol\":386:389  map */\n      0x01\n        /* \"Account.sol\":386:401  map[msg.sender] */\n      0x00\n        /* \"Account.sol\":390:400  msg.sender */\n      caller\n        /* \"Account.sol\":386:401  map[msg.sender] */\n      0xffffffffffffffffffffffffffffffffffffffff\n      and\n      0xffffffffffffffffffffffffffffffffffffffff\n      and\n      dup2\n      mstore\n      0x20\n      add\n      swap1\n      dup2\n      mstore\n      0x20\n      add\n      0x00\n      keccak256\n      sload\n        /* \"Account.sol\":376:382  amount */\n      dup2\n        /* \"Account.sol\":376:401  amount <= map[msg.sender] */\n      gt\n      iszero\n        /* \"Account.sol\":368:458  require(amount <= map[msg.sender], \"Your account doesn't contains that amount of balance\") */\n      tag_43\n      jumpi\n      mload(0x40)\n      0x08c379a000000000000000000000000000000000000000000000000000000000\n      dup2\n      mstore\n      0x04\n      add\n      tag_44\n      swap1\n      tag_45\n      jump\t// in\n    tag_44:\n      mload(0x40)\n      dup1\n      swap2\n      sub\n      swap1\n      revert\n    tag_43:\n        /* \"Account.sol\":483:486  map */\n      0x01\n        /* \"Account.sol\":483:498  map[msg.sender] */\n      0x00\n        /* \"Account.sol\":487:497  msg.sender */\n      caller\n        /* \"Account.sol\":483:498  map[msg.sender] */\n      0xffffffffffffffffffffffffffffffffffffffff\n      and\n      0xffffffffffffffffffffffffffffffffffffffff\n      and\n      dup2\n      mstore\n      0x20\n      add\n      swap1\n      dup2\n      mstore\n      0x20\n      add\n      0x00\n      keccak256\n      sload\n        /* \"Account.sol\":473:479  amount */\n      dup2\n        /* \"Account.sol\":473:498  amount == map[msg.sender] */\n      sub\n        /* \"Account.sol\":469:605  if (amount == map[msg.sender]) {... */\n      tag_46\n      jumpi\n        /* \"Account.sol\":533:534  0 */\n      0x00\n        /* \"Account.sol\":515:518  map */\n      0x01\n        /* \"Account.sol\":515:530  map[msg.sender] */\n      0x00\n        /* \"Account.sol\":519:529  msg.sender */\n      caller\n        /* \"Account.sol\":515:530  map[msg.sender] */\n      0xffffffffffffffffffffffffffffffffffffffff\n      and\n      0xffffffffffffffffffffffffffffffffffffffff\n      and\n      dup2\n      mstore\n      0x20\n      add\n      swap1\n      dup2\n      mstore\n      0x20\n      add\n      0x00\n      keccak256\n        /* \"Account.sol\":515:534  map[msg.sender] = 0 */\n      dup2\n      swap1\n      sstore\n      pop\n        /* \"Account.sol\":469:605  if (amount == map[msg.sender]) {... */\n      jump(tag_47)\n    tag_46:\n        /* \"Account.sol\":587:593  amount */\n      dup1\n        /* \"Account.sol\":568:571  map */\n      0x01\n        /* \"Account.sol\":568:583  map[msg.sender] */\n      0x00\n        /* \"Account.sol\":572:582  msg.sender */\n      caller\n        /* \"Account.sol\":568:583  map[msg.sender] */\n      0xffffffffffffffffffffffffffffffffffffffff\n      and\n      0xffffffffffffffffffffffffffffffffffffffff\n      and\n      dup2\n      mstore\n      0x20\n      add\n      swap1\n      dup2\n      mstore\n      0x20\n      add\n      0x00\n      keccak256\n      0x00\n        /* \"Account.sol\":568:593  map[msg.sender] -= amount */\n      dup3\n      dup3\n      sload\n      tag_48\n      swap2\n      swap1\n      tag_49\n      jump\t// in\n    tag_48:\n      swap3\n      pop\n      pop\n      dup2\n      swap1\n      sstore\n      pop\n        /* \"Account.sol\":469:605  if (amount == map[msg.sender]) {... */\n    tag_47:\n        /* \"Account.sol\":618:627  bool sent */\n      0x00\n        /* \"Account.sol\":640:650  msg.sender */\n      caller\n        /* \"Account.sol\":632:656  payable(msg.sender).call */\n      0xffffffffffffffffffffffffffffffffffffffff\n      and\n        /* \"Account.sol\":664:670  amount */\n      dup3\n        /* \"Account.sol\":632:675  payable(msg.sender).call{value: amount}(\"\") */\n      mload(0x40)\n      tag_50\n      swap1\n      tag_51\n      jump\t// in\n    tag_50:\n      0x00\n      mload(0x40)\n      dup1\n      dup4\n      sub\n      dup2\n      dup6\n      dup8\n      gas\n      call\n      swap3\n      pop\n      pop\n      pop\n      returndatasize\n      dup1\n      0x00\n      dup2\n      eq\n      tag_54\n      jumpi\n      mload(0x40)\n      swap2\n      pop\n      and(add(returndatasize, 0x3f), not(0x1f))\n      dup3\n      add\n      0x40\n      mstore\n      returndatasize\n      dup3\n      mstore\n      returndatasize\n      0x00\n      0x20\n      dup5\n      add\n      returndatacopy\n      jump(tag_53)\n    tag_54:\n      0x60\n      swap2\n      pop\n    tag_53:\n      pop\n        /* \"Account.sol\":617:675  (bool sent,) = payable(msg.sender).call{value: amount}(\"\") */\n      pop\n      swap1\n      pop\n        /* \"Account.sol\":694:698  sent */\n      dup1\n        /* \"Account.sol\":686:737  require(sent, \"Failed to withdraw. Refunding gas.\") */\n      tag_55\n      jumpi\n      mload(0x40)\n      0x08c379a000000000000000000000000000000000000000000000000000000000\n      dup2\n      mstore\n      0x04\n      add\n      tag_56\n      swap1\n      tag_57\n      jump\t// in\n    tag_56:\n      mload(0x40)\n      dup1\n      swap2\n      sub\n      swap1\n      revert\n    tag_55:\n        /* \"Account.sol\":357:745  {... */\n      pop\n        /* \"Account.sol\":309:745  function withdraw(uint amount) external payable {... */\n      pop\n      jump\t// out\n        /* \"Account.sol\":1264:1365  function getAddressBalance(address add) public view returns (uint) {... */\n    tag_29:\n        /* \"Account.sol\":1325:1329  uint */\n      0x00\n        /* \"Account.sol\":1349:1352  map */\n      0x01\n        /* \"Account.sol\":1349:1357  map[add] */\n      0x00\n        /* \"Account.sol\":1353:1356  add */\n      dup4\n        /* \"Account.sol\":1349:1357  map[add] */\n      0xffffffffffffffffffffffffffffffffffffffff\n      and\n      0xffffffffffffffffffffffffffffffffffffffff\n      and\n      dup2\n      mstore\n      0x20\n      add\n      swap1\n      dup2\n      mstore\n      0x20\n      add\n      0x00\n      keccak256\n      sload\n        /* \"Account.sol\":1342:1357  return map[add] */\n      swap1\n      pop\n        /* \"Account.sol\":1264:1365  function getAddressBalance(address add) public view returns (uint) {... */\n      swap2\n      swap1\n      pop\n      jump\t// out\n        /* \"Account.sol\":1373:1473  function getBankBalance() public view returns (uint) {... */\n    tag_33:\n        /* \"Account.sol\":1420:1424  uint */\n      0x00\n        /* \"Account.sol\":1444:1465  address(this).balance */\n      selfbalance\n        /* \"Account.sol\":1437:1465  return address(this).balance */\n      swap1\n      pop\n        /* \"Account.sol\":1373:1473  function getBankBalance() public view returns (uint) {... */\n      swap1\n      jump\t// out\n        /* \"Account.sol\":753:1158  function pay(address add, uint amount) external payable {... */\n    tag_38:\n        /* \"Account.sol\":847:853  amount */\n      dup1\n        /* \"Account.sol\":828:831  map */\n      0x01\n        /* \"Account.sol\":828:843  map[msg.sender] */\n      0x00\n        /* \"Account.sol\":832:842  msg.sender */\n      caller\n        /* \"Account.sol\":828:843  map[msg.sender] */\n      0xffffffffffffffffffffffffffffffffffffffff\n      and\n      0xffffffffffffffffffffffffffffffffffffffff\n      and\n      dup2\n      mstore\n      0x20\n      add\n      swap1\n      dup2\n      mstore\n      0x20\n      add\n      0x00\n      keccak256\n      sload\n        /* \"Account.sol\":828:853  map[msg.sender] >= amount */\n      lt\n      iszero\n        /* \"Account.sol\":820:876  require(map[msg.sender] >= amount, \"Not enough balance\") */\n      tag_61\n      jumpi\n      mload(0x40)\n      0x08c379a000000000000000000000000000000000000000000000000000000000\n      dup2\n      mstore\n      0x04\n      add\n      tag_62\n      swap1\n      tag_63\n      jump\t// in\n    tag_62:\n      mload(0x40)\n      dup1\n      swap2\n      sub\n      swap1\n      revert\n    tag_61:\n        /* \"Account.sol\":901:904  map */\n      0x01\n        /* \"Account.sol\":901:916  map[msg.sender] */\n      0x00\n        /* \"Account.sol\":905:915  msg.sender */\n      caller\n        /* \"Account.sol\":901:916  map[msg.sender] */\n      0xffffffffffffffffffffffffffffffffffffffff\n      and\n      0xffffffffffffffffffffffffffffffffffffffff\n      and\n      dup2\n      mstore\n      0x20\n      add\n      swap1\n      dup2\n      mstore\n      0x20\n      add\n      0x00\n      keccak256\n      sload\n        /* \"Account.sol\":891:897  amount */\n      dup2\n        /* \"Account.sol\":891:916  amount == map[msg.sender] */\n      sub\n        /* \"Account.sol\":887:1022  if (amount == map[msg.sender]) {... */\n      tag_64\n      jumpi\n        /* \"Account.sol\":951:952  0 */\n      0x00\n        /* \"Account.sol\":933:936  map */\n      0x01\n        /* \"Account.sol\":933:948  map[msg.sender] */\n      0x00\n        /* \"Account.sol\":937:947  msg.sender */\n      caller\n        /* \"Account.sol\":933:948  map[msg.sender] */\n      0xffffffffffffffffffffffffffffffffffffffff\n      and\n      0xffffffffffffffffffffffffffffffffffffffff\n      and\n      dup2\n      mstore\n      0x20\n      add\n      swap1\n      dup2\n      mstore\n      0x20\n      add\n      0x00\n      keccak256\n        /* \"Account.sol\":933:952  map[msg.sender] = 0 */\n      dup2\n      swap1\n      sstore\n      pop\n        /* \"Account.sol\":887:1022  if (amount == map[msg.sender]) {... */\n      jump(tag_65)\n    tag_64:\n        /* \"Account.sol\":1004:1010  amount */\n      dup1\n        /* \"Account.sol\":985:988  map */\n      0x01\n        /* \"Account.sol\":985:1000  map[msg.sender] */\n      0x00\n        /* \"Account.sol\":989:999  msg.sender */\n      caller\n        /* \"Account.sol\":985:1000  map[msg.sender] */\n      0xffffffffffffffffffffffffffffffffffffffff\n      and\n      0xffffffffffffffffffffffffffffffffffffffff\n      and\n      dup2\n      mstore\n      0x20\n      add\n      swap1\n      dup2\n      mstore\n      0x20\n      add\n      0x00\n      keccak256\n      0x00\n        /* \"Account.sol\":985:1010  map[msg.sender] -= amount */\n      dup3\n      dup3\n      sload\n      tag_66\n      swap2\n      swap1\n      tag_49\n      jump\t// in\n    tag_66:\n      swap3\n      pop\n      pop\n      dup2\n      swap1\n      sstore\n      pop\n        /* \"Account.sol\":887:1022  if (amount == map[msg.sender]) {... */\n    tag_65:\n        /* \"Account.sol\":1043:1052  bool sent */\n      0x00\n        /* \"Account.sol\":1065:1068  add */\n      dup3\n        /* \"Account.sol\":1057:1074  payable(add).call */\n      0xffffffffffffffffffffffffffffffffffffffff\n      and\n        /* \"Account.sol\":1082:1088  amount */\n      dup3\n        /* \"Account.sol\":1057:1093  payable(add).call{value: amount}(\"\") */\n      mload(0x40)\n      tag_67\n      swap1\n      tag_51\n      jump\t// in\n    tag_67:\n      0x00\n      mload(0x40)\n      dup1\n      dup4\n      sub\n      dup2\n      dup6\n      dup8\n      gas\n      call\n      swap3\n      pop\n      pop\n      pop\n      returndatasize\n      dup1\n      0x00\n      dup2\n      eq\n      tag_70\n      jumpi\n      mload(0x40)\n      swap2\n      pop\n      and(add(returndatasize, 0x3f), not(0x1f))\n      dup3\n      add\n      0x40\n      mstore\n      returndatasize\n      dup3\n      mstore\n      returndatasize\n      0x00\n      0x20\n      dup5\n      add\n      returndatacopy\n      jump(tag_69)\n    tag_70:\n      0x60\n      swap2\n      pop\n    tag_69:\n      pop\n        /* \"Account.sol\":1042:1093  (bool sent,) = payable(add).call{value: amount}(\"\") */\n      pop\n      swap1\n      pop\n        /* \"Account.sol\":1112:1116  sent */\n      dup1\n        /* \"Account.sol\":1104:1150  require(sent, \"Failed to pay. Refunding gas.\") */\n      tag_71\n      jumpi\n      mload(0x40)\n      0x08c379a000000000000000000000000000000000000000000000000000000000\n      dup2\n      mstore\n      0x04\n      add\n      tag_72\n      swap1\n      tag_73\n      jump\t// in\n    tag_72:\n      mload(0x40)\n      dup1\n      swap2\n      sub\n      swap1\n      revert\n    tag_71:\n        /* \"Account.sol\":809:1158  {... */\n      pop\n        /* \"Account.sol\":753:1158  function pay(address add, uint amount) external payable {... */\n      pop\n      pop\n      jump\t// out\n        /* \"Account.sol\":217:301  function deposit() external payable  {... */\n    tag_40:\n        /* \"Account.sol\":284:293  msg.value */\n      callvalue\n        /* \"Account.sol\":265:268  map */\n      0x01\n        /* \"Account.sol\":265:280  map[msg.sender] */\n      0x00\n        /* \"Account.sol\":269:279  msg.sender */\n      caller\n        /* \"Account.sol\":265:280  map[msg.sender] */\n      0xffffffffffffffffffffffffffffffffffffffff\n      and\n      0xffffffffffffffffffffffffffffffffffffffff\n      and\n      dup2\n      mstore\n      0x20\n      add\n      swap1\n      dup2\n      mstore\n      0x20\n      add\n      0x00\n      keccak256\n      0x00\n        /* \"Account.sol\":265:293  map[msg.sender] += msg.value */\n      dup3\n      dup3\n      sload\n      tag_75\n      swap2\n      swap1\n      tag_12\n      jump\t// in\n    tag_75:\n      swap3\n      pop\n      pop\n      dup2\n      swap1\n      sstore\n      pop\n        /* \"Account.sol\":217:301  function deposit() external payable  {... */\n      jump\t// out\n        /* \"#utility.yul\":7:84   */\n    tag_76:\n        /* \"#utility.yul\":44:51   */\n      0x00\n        /* \"#utility.yul\":73:78   */\n      dup2\n        /* \"#utility.yul\":62:78   */\n      swap1\n      pop\n        /* \"#utility.yul\":7:84   */\n      swap2\n      swap1\n      pop\n      jump\t// out\n        /* \"#utility.yul\":90:270   */\n    tag_77:\n        /* \"#utility.yul\":138:215   */\n      0x4e487b7100000000000000000000000000000000000000000000000000000000\n        /* \"#utility.yul\":135:136   */\n      0x00\n        /* \"#utility.yul\":128:216   */\n      mstore\n        /* \"#utility.yul\":235:239   */\n      0x11\n        /* \"#utility.yul\":232:233   */\n      0x04\n        /* \"#utility.yul\":225:240   */\n      mstore\n        /* \"#utility.yul\":259:263   */\n      0x24\n        /* \"#utility.yul\":256:257   */\n      0x00\n        /* \"#utility.yul\":249:264   */\n      revert\n        /* \"#utility.yul\":276:467   */\n    tag_12:\n        /* \"#utility.yul\":316:319   */\n      0x00\n        /* \"#utility.yul\":335:355   */\n      tag_104\n        /* \"#utility.yul\":353:354   */\n      dup3\n        /* \"#utility.yul\":335:355   */\n      tag_76\n      jump\t// in\n    tag_104:\n        /* \"#utility.yul\":330:355   */\n      swap2\n      pop\n        /* \"#utility.yul\":369:389   */\n      tag_105\n        /* \"#utility.yul\":387:388   */\n      dup4\n        /* \"#utility.yul\":369:389   */\n      tag_76\n      jump\t// in\n    tag_105:\n        /* \"#utility.yul\":364:389   */\n      swap3\n      pop\n        /* \"#utility.yul\":412:413   */\n      dup3\n        /* \"#utility.yul\":409:410   */\n      dup3\n        /* \"#utility.yul\":405:414   */\n      add\n        /* \"#utility.yul\":398:414   */\n      swap1\n      pop\n        /* \"#utility.yul\":433:436   */\n      dup1\n        /* \"#utility.yul\":430:431   */\n      dup3\n        /* \"#utility.yul\":427:437   */\n      gt\n        /* \"#utility.yul\":424:460   */\n      iszero\n      tag_106\n      jumpi\n        /* \"#utility.yul\":440:458   */\n      tag_107\n      tag_77\n      jump\t// in\n    tag_107:\n        /* \"#utility.yul\":424:460   */\n    tag_106:\n        /* \"#utility.yul\":276:467   */\n      swap3\n      swap2\n      pop\n      pop\n      jump\t// out\n        /* \"#utility.yul\":473:591   */\n    tag_78:\n        /* \"#utility.yul\":560:584   */\n      tag_109\n        /* \"#utility.yul\":578:583   */\n      dup2\n        /* \"#utility.yul\":560:584   */\n      tag_76\n      jump\t// in\n    tag_109:\n        /* \"#utility.yul\":555:558   */\n      dup3\n        /* \"#utility.yul\":548:585   */\n      mstore\n        /* \"#utility.yul\":473:591   */\n      pop\n      pop\n      jump\t// out\n        /* \"#utility.yul\":597:819   */\n    tag_20:\n        /* \"#utility.yul\":690:694   */\n      0x00\n        /* \"#utility.yul\":728:730   */\n      0x20\n        /* \"#utility.yul\":717:726   */\n      dup3\n        /* \"#utility.yul\":713:731   */\n      add\n        /* \"#utility.yul\":705:731   */\n      swap1\n      pop\n        /* \"#utility.yul\":741:812   */\n      tag_111\n        /* \"#utility.yul\":809:810   */\n      0x00\n        /* \"#utility.yul\":798:807   */\n      dup4\n        /* \"#utility.yul\":794:811   */\n      add\n        /* \"#utility.yul\":785:791   */\n      dup5\n        /* \"#utility.yul\":741:812   */\n      tag_78\n      jump\t// in\n    tag_111:\n        /* \"#utility.yul\":597:819   */\n      swap3\n      swap2\n      pop\n      pop\n      jump\t// out\n        /* \"#utility.yul\":906:1023   */\n    tag_80:\n        /* \"#utility.yul\":1015:1016   */\n      0x00\n        /* \"#utility.yul\":1012:1013   */\n      dup1\n        /* \"#utility.yul\":1005:1017   */\n      revert\n        /* \"#utility.yul\":1152:1274   */\n    tag_82:\n        /* \"#utility.yul\":1225:1249   */\n      tag_116\n        /* \"#utility.yul\":1243:1248   */\n      dup2\n        /* \"#utility.yul\":1225:1249   */\n      tag_76\n      jump\t// in\n    tag_116:\n        /* \"#utility.yul\":1218:1223   */\n      dup2\n        /* \"#utility.yul\":1215:1250   */\n      eq\n        /* \"#utility.yul\":1205:1268   */\n      tag_117\n      jumpi\n        /* \"#utility.yul\":1264:1265   */\n      0x00\n        /* \"#utility.yul\":1261:1262   */\n      dup1\n        /* \"#utility.yul\":1254:1266   */\n      revert\n        /* \"#utility.yul\":1205:1268   */\n    tag_117:\n        /* \"#utility.yul\":1152:1274   */\n      pop\n      jump\t// out\n        /* \"#utility.yul\":1280:1419   */\n    tag_83:\n        /* \"#utility.yul\":1326:1331   */\n      0x00\n        /* \"#utility.yul\":1364:1370   */\n      dup2\n        /* \"#utility.yul\":1351:1371   */\n      calldataload\n        /* \"#utility.yul\":1342:1371   */\n      swap1\n      pop\n        /* \"#utility.yul\":1380:1413   */\n      tag_119\n        /* \"#utility.yul\":1407:1412   */\n      dup2\n        /* \"#utility.yul\":1380:1413   */\n      tag_82\n      jump\t// in\n    tag_119:\n        /* \"#utility.yul\":1280:1419   */\n      swap3\n      swap2\n      pop\n      pop\n      jump\t// out\n        /* \"#utility.yul\":1425:1754   */\n    tag_23:\n        /* \"#utility.yul\":1484:1490   */\n      0x00\n        /* \"#utility.yul\":1533:1535   */\n      0x20\n        /* \"#utility.yul\":1521:1530   */\n      dup3\n        /* \"#utility.yul\":1512:1519   */\n      dup5\n        /* \"#utility.yul\":1508:1531   */\n      sub\n        /* \"#utility.yul\":1504:1536   */\n      slt\n        /* \"#utility.yul\":1501:1620   */\n      iszero\n      tag_121\n      jumpi\n        /* \"#utility.yul\":1539:1618   */\n      tag_122\n      tag_80\n      jump\t// in\n    tag_122:\n        /* \"#utility.yul\":1501:1620   */\n    tag_121:\n        /* \"#utility.yul\":1659:1660   */\n      0x00\n        /* \"#utility.yul\":1684:1737   */\n      tag_123\n        /* \"#utility.yul\":1729:1736   */\n      dup5\n        /* \"#utility.yul\":1720:1726   */\n      dup3\n        /* \"#utility.yul\":1709:1718   */\n      dup6\n        /* \"#utility.yul\":1705:1727   */\n      add\n        /* \"#utility.yul\":1684:1737   */\n      tag_83\n      jump\t// in\n    tag_123:\n        /* \"#utility.yul\":1674:1737   */\n      swap2\n      pop\n        /* \"#utility.yul\":1630:1747   */\n      pop\n        /* \"#utility.yul\":1425:1754   */\n      swap3\n      swap2\n      pop\n      pop\n      jump\t// out\n        /* \"#utility.yul\":1760:1886   */\n    tag_84:\n        /* \"#utility.yul\":1797:1804   */\n      0x00\n        /* \"#utility.yul\":1837:1879   */\n      0xffffffffffffffffffffffffffffffffffffffff\n        /* \"#utility.yul\":1830:1835   */\n      dup3\n        /* \"#utility.yul\":1826:1880   */\n      and\n        /* \"#utility.yul\":1815:1880   */\n      swap1\n      pop\n        /* \"#utility.yul\":1760:1886   */\n      swap2\n      swap1\n      pop\n      jump\t// out\n        /* \"#utility.yul\":1892:1988   */\n    tag_85:\n        /* \"#utility.yul\":1929:1936   */\n      0x00\n        /* \"#utility.yul\":1958:1982   */\n      tag_126\n        /* \"#utility.yul\":1976:1981   */\n      dup3\n        /* \"#utility.yul\":1958:1982   */\n      tag_84\n      jump\t// in\n    tag_126:\n        /* \"#utility.yul\":1947:1982   */\n      swap1\n      pop\n        /* \"#utility.yul\":1892:1988   */\n      swap2\n      swap1\n      pop\n      jump\t// out\n        /* \"#utility.yul\":1994:2116   */\n    tag_86:\n        /* \"#utility.yul\":2067:2091   */\n      tag_128\n        /* \"#utility.yul\":2085:2090   */\n      dup2\n        /* \"#utility.yul\":2067:2091   */\n      tag_85\n      jump\t// in\n    tag_128:\n        /* \"#utility.yul\":2060:2065   */\n      dup2\n        /* \"#utility.yul\":2057:2092   */\n      eq\n        /* \"#utility.yul\":2047:2110   */\n      tag_129\n      jumpi\n        /* \"#utility.yul\":2106:2107   */\n      0x00\n        /* \"#utility.yul\":2103:2104   */\n      dup1\n        /* \"#utility.yul\":2096:2108   */\n      revert\n        /* \"#utility.yul\":2047:2110   */\n    tag_129:\n        /* \"#utility.yul\":1994:2116   */\n      pop\n      jump\t// out\n        /* \"#utility.yul\":2122:2261   */\n    tag_87:\n        /* \"#utility.yul\":2168:2173   */\n      0x00\n        /* \"#utility.yul\":2206:2212   */\n      dup2\n        /* \"#utility.yul\":2193:2213   */\n      calldataload\n        /* \"#utility.yul\":2184:2213   */\n      swap1\n      pop\n        /* \"#utility.yul\":2222:2255   */\n      tag_131\n        /* \"#utility.yul\":2249:2254   */\n      dup2\n        /* \"#utility.yul\":2222:2255   */\n      tag_86\n      jump\t// in\n    tag_131:\n        /* \"#utility.yul\":2122:2261   */\n      swap3\n      swap2\n      pop\n      pop\n      jump\t// out\n        /* \"#utility.yul\":2267:2596   */\n    tag_28:\n        /* \"#utility.yul\":2326:2332   */\n      0x00\n        /* \"#utility.yul\":2375:2377   */\n      0x20\n        /* \"#utility.yul\":2363:2372   */\n      dup3\n        /* \"#utility.yul\":2354:2361   */\n      dup5\n        /* \"#utility.yul\":2350:2373   */\n      sub\n        /* \"#utility.yul\":2346:2378   */\n      slt\n        /* \"#utility.yul\":2343:2462   */\n      iszero\n      tag_133\n      jumpi\n        /* \"#utility.yul\":2381:2460   */\n      tag_134\n      tag_80\n      jump\t// in\n    tag_134:\n        /* \"#utility.yul\":2343:2462   */\n    tag_133:\n        /* \"#utility.yul\":2501:2502   */\n      0x00\n        /* \"#utility.yul\":2526:2579   */\n      tag_135\n        /* \"#utility.yul\":2571:2578   */\n      dup5\n        /* \"#utility.yul\":2562:2568   */\n      dup3\n        /* \"#utility.yul\":2551:2560   */\n      dup6\n        /* \"#utility.yul\":2547:2569   */\n      add\n        /* \"#utility.yul\":2526:2579   */\n      tag_87\n      jump\t// in\n    tag_135:\n        /* \"#utility.yul\":2516:2579   */\n      swap2\n      pop\n        /* \"#utility.yul\":2472:2589   */\n      pop\n        /* \"#utility.yul\":2267:2596   */\n      swap3\n      swap2\n      pop\n      pop\n      jump\t// out\n        /* \"#utility.yul\":2602:3076   */\n    tag_37:\n        /* \"#utility.yul\":2670:2676   */\n      0x00\n        /* \"#utility.yul\":2678:2684   */\n      dup1\n        /* \"#utility.yul\":2727:2729   */\n      0x40\n        /* \"#utility.yul\":2715:2724   */\n      dup4\n        /* \"#utility.yul\":2706:2713   */\n      dup6\n        /* \"#utility.yul\":2702:2725   */\n      sub\n        /* \"#utility.yul\":2698:2730   */\n      slt\n        /* \"#utility.yul\":2695:2814   */\n      iszero\n      tag_137\n      jumpi\n        /* \"#utility.yul\":2733:2812   */\n      tag_138\n      tag_80\n      jump\t// in\n    tag_138:\n        /* \"#utility.yul\":2695:2814   */\n    tag_137:\n        /* \"#utility.yul\":2853:2854   */\n      0x00\n        /* \"#utility.yul\":2878:2931   */\n      tag_139\n        /* \"#utility.yul\":2923:2930   */\n      dup6\n        /* \"#utility.yul\":2914:2920   */\n      dup3\n        /* \"#utility.yul\":2903:2912   */\n      dup7\n        /* \"#utility.yul\":2899:2921   */\n      add\n        /* \"#utility.yul\":2878:2931   */\n      tag_87\n      jump\t// in\n    tag_139:\n        /* \"#utility.yul\":2868:2931   */\n      swap3\n      pop\n        /* \"#utility.yul\":2824:2941   */\n      pop\n        /* \"#utility.yul\":2980:2982   */\n      0x20\n        /* \"#utility.yul\":3006:3059   */\n      tag_140\n        /* \"#utility.yul\":3051:3058   */\n      dup6\n        /* \"#utility.yul\":3042:3048   */\n      dup3\n        /* \"#utility.yul\":3031:3040   */\n      dup7\n        /* \"#utility.yul\":3027:3049   */\n      add\n        /* \"#utility.yul\":3006:3059   */\n      tag_83\n      jump\t// in\n    tag_140:\n        /* \"#utility.yul\":2996:3059   */\n      swap2\n      pop\n        /* \"#utility.yul\":2951:3069   */\n      pop\n        /* \"#utility.yul\":2602:3076   */\n      swap3\n      pop\n      swap3\n      swap1\n      pop\n      jump\t// out\n        /* \"#utility.yul\":3082:3251   */\n    tag_88:\n        /* \"#utility.yul\":3166:3177   */\n      0x00\n        /* \"#utility.yul\":3200:3206   */\n      dup3\n        /* \"#utility.yul\":3195:3198   */\n      dup3\n        /* \"#utility.yul\":3188:3207   */\n      mstore\n        /* \"#utility.yul\":3240:3244   */\n      0x20\n        /* \"#utility.yul\":3235:3238   */\n      dup3\n        /* \"#utility.yul\":3231:3245   */\n      add\n        /* \"#utility.yul\":3216:3245   */\n      swap1\n      pop\n        /* \"#utility.yul\":3082:3251   */\n      swap3\n      swap2\n      pop\n      pop\n      jump\t// out\n        /* \"#utility.yul\":3257:3496   */\n    tag_89:\n        /* \"#utility.yul\":3397:3431   */\n      0x596f7572206163636f756e7420646f65736e277420636f6e7461696e73207468\n        /* \"#utility.yul\":3393:3394   */\n      0x00\n        /* \"#utility.yul\":3385:3391   */\n      dup3\n        /* \"#utility.yul\":3381:3395   */\n      add\n        /* \"#utility.yul\":3374:3432   */\n      mstore\n        /* \"#utility.yul\":3466:3488   */\n      0x617420616d6f756e74206f662062616c616e6365000000000000000000000000\n        /* \"#utility.yul\":3461:3463   */\n      0x20\n        /* \"#utility.yul\":3453:3459   */\n      dup3\n        /* \"#utility.yul\":3449:3464   */\n      add\n        /* \"#utility.yul\":3442:3489   */\n      mstore\n        /* \"#utility.yul\":3257:3496   */\n      pop\n      jump\t// out\n        /* \"#utility.yul\":3502:3868   */\n    tag_90:\n        /* \"#utility.yul\":3644:3647   */\n      0x00\n        /* \"#utility.yul\":3665:3732   */\n      tag_144\n        /* \"#utility.yul\":3729:3731   */\n      0x34\n        /* \"#utility.yul\":3724:3727   */\n      dup4\n        /* \"#utility.yul\":3665:3732   */\n      tag_88\n      jump\t// in\n    tag_144:\n        /* \"#utility.yul\":3658:3732   */\n      swap2\n      pop\n        /* \"#utility.yul\":3741:3834   */\n      tag_145\n        /* \"#utility.yul\":3830:3833   */\n      dup3\n        /* \"#utility.yul\":3741:3834   */\n      tag_89\n      jump\t// in\n    tag_145:\n        /* \"#utility.yul\":3859:3861   */\n      0x40\n        /* \"#utility.yul\":3854:3857   */\n      dup3\n        /* \"#utility.yul\":3850:3862   */\n      add\n        /* \"#utility.yul\":3843:3862   */\n      swap1\n      pop\n        /* \"#utility.yul\":3502:3868   */\n      swap2\n      swap1\n      pop\n      jump\t// out\n        /* \"#utility.yul\":3874:4293   */\n    tag_45:\n        /* \"#utility.yul\":4040:4044   */\n      0x00\n        /* \"#utility.yul\":4078:4080   */\n      0x20\n        /* \"#utility.yul\":4067:4076   */\n      dup3\n        /* \"#utility.yul\":4063:4081   */\n      add\n        /* \"#utility.yul\":4055:4081   */\n      swap1\n      pop\n        /* \"#utility.yul\":4127:4136   */\n      dup2\n        /* \"#utility.yul\":4121:4125   */\n      dup2\n        /* \"#utility.yul\":4117:4137   */\n      sub\n        /* \"#utility.yul\":4113:4114   */\n      0x00\n        /* \"#utility.yul\":4102:4111   */\n      dup4\n        /* \"#utility.yul\":4098:4115   */\n      add\n        /* \"#utility.yul\":4091:4138   */\n      mstore\n        /* \"#utility.yul\":4155:4286   */\n      tag_147\n        /* \"#utility.yul\":4281:4285   */\n      dup2\n        /* \"#utility.yul\":4155:4286   */\n      tag_90\n      jump\t// in\n    tag_147:\n        /* \"#utility.yul\":4147:4286   */\n      swap1\n      pop\n        /* \"#utility.yul\":3874:4293   */\n      swap2\n      swap1\n      pop\n      jump\t// out\n        /* \"#utility.yul\":4299:4493   */\n    tag_49:\n        /* \"#utility.yul\":4339:4343   */\n      0x00\n        /* \"#utility.yul\":4359:4379   */\n      tag_149\n        /* \"#utility.yul\":4377:4378   */\n      dup3\n        /* \"#utility.yul\":4359:4379   */\n      tag_76\n      jump\t// in\n    tag_149:\n        /* \"#utility.yul\":4354:4379   */\n      swap2\n      pop\n        /* \"#utility.yul\":4393:4413   */\n      tag_150\n        /* \"#utility.yul\":4411:4412   */\n      dup4\n        /* \"#utility.yul\":4393:4413   */\n      tag_76\n      jump\t// in\n    tag_150:\n        /* \"#utility.yul\":4388:4413   */\n      swap3\n      pop\n        /* \"#utility.yul\":4437:4438   */\n      dup3\n        /* \"#utility.yul\":4434:4435   */\n      dup3\n        /* \"#utility.yul\":4430:4439   */\n      sub\n        /* \"#utility.yul\":4422:4439   */\n      swap1\n      pop\n        /* \"#utility.yul\":4461:4462   */\n      dup2\n        /* \"#utility.yul\":4455:4459   */\n      dup2\n        /* \"#utility.yul\":4452:4463   */\n      gt\n        /* \"#utility.yul\":4449:4486   */\n      iszero\n      tag_151\n      jumpi\n        /* \"#utility.yul\":4466:4484   */\n      tag_152\n      tag_77\n      jump\t// in\n    tag_152:\n        /* \"#utility.yul\":4449:4486   */\n    tag_151:\n        /* \"#utility.yul\":4299:4493   */\n      swap3\n      swap2\n      pop\n      pop\n      jump\t// out\n        /* \"#utility.yul\":4499:4646   */\n    tag_91:\n        /* \"#utility.yul\":4600:4611   */\n      0x00\n        /* \"#utility.yul\":4637:4640   */\n      dup2\n        /* \"#utility.yul\":4622:4640   */\n      swap1\n      pop\n        /* \"#utility.yul\":4499:4646   */\n      swap3\n      swap2\n      pop\n      pop\n      jump\t// out\n        /* \"#utility.yul\":4652:4766   */\n    tag_92:\n      pop\n      jump\t// out\n        /* \"#utility.yul\":4772:5170   */\n    tag_93:\n        /* \"#utility.yul\":4931:4934   */\n      0x00\n        /* \"#utility.yul\":4952:5035   */\n      tag_156\n        /* \"#utility.yul\":5033:5034   */\n      0x00\n        /* \"#utility.yul\":5028:5031   */\n      dup4\n        /* \"#utility.yul\":4952:5035   */\n      tag_91\n      jump\t// in\n    tag_156:\n        /* \"#utility.yul\":4945:5035   */\n      swap2\n      pop\n        /* \"#utility.yul\":5044:5137   */\n      tag_157\n        /* \"#utility.yul\":5133:5136   */\n      dup3\n        /* \"#utility.yul\":5044:5137   */\n      tag_92\n      jump\t// in\n    tag_157:\n        /* \"#utility.yul\":5162:5163   */\n      0x00\n        /* \"#utility.yul\":5157:5160   */\n      dup3\n        /* \"#utility.yul\":5153:5164   */\n      add\n        /* \"#utility.yul\":5146:5164   */\n      swap1\n      pop\n        /* \"#utility.yul\":4772:5170   */\n      swap2\n      swap1\n      pop\n      jump\t// out\n        /* \"#utility.yul\":5176:5555   */\n    tag_51:\n        /* \"#utility.yul\":5360:5363   */\n      0x00\n        /* \"#utility.yul\":5382:5529   */\n      tag_159\n        /* \"#utility.yul\":5525:5528   */\n      dup3\n        /* \"#utility.yul\":5382:5529   */\n      tag_93\n      jump\t// in\n    tag_159:\n        /* \"#utility.yul\":5375:5529   */\n      swap2\n      pop\n        /* \"#utility.yul\":5546:5549   */\n      dup2\n        /* \"#utility.yul\":5539:5549   */\n      swap1\n      pop\n        /* \"#utility.yul\":5176:5555   */\n      swap2\n      swap1\n      pop\n      jump\t// out\n        /* \"#utility.yul\":5561:5782   */\n    tag_94:\n        /* \"#utility.yul\":5701:5735   */\n      0x4661696c656420746f2077697468647261772e20526566756e64696e67206761\n        /* \"#utility.yul\":5697:5698   */\n      0x00\n        /* \"#utility.yul\":5689:5695   */\n      dup3\n        /* \"#utility.yul\":5685:5699   */\n      add\n        /* \"#utility.yul\":5678:5736   */\n      mstore\n        /* \"#utility.yul\":5770:5774   */\n      0x732e000000000000000000000000000000000000000000000000000000000000\n        /* \"#utility.yul\":5765:5767   */\n      0x20\n        /* \"#utility.yul\":5757:5763   */\n      dup3\n        /* \"#utility.yul\":5753:5768   */\n      add\n        /* \"#utility.yul\":5746:5775   */\n      mstore\n        /* \"#utility.yul\":5561:5782   */\n      pop\n      jump\t// out\n        /* \"#utility.yul\":5788:6154   */\n    tag_95:\n        /* \"#utility.yul\":5930:5933   */\n      0x00\n        /* \"#utility.yul\":5951:6018   */\n      tag_162\n        /* \"#utility.yul\":6015:6017   */\n      0x22\n        /* \"#utility.yul\":6010:6013   */\n      dup4\n        /* \"#utility.yul\":5951:6018   */\n      tag_88\n      jump\t// in\n    tag_162:\n        /* \"#utility.yul\":5944:6018   */\n      swap2\n      pop\n        /* \"#utility.yul\":6027:6120   */\n      tag_163\n        /* \"#utility.yul\":6116:6119   */\n      dup3\n        /* \"#utility.yul\":6027:6120   */\n      tag_94\n      jump\t// in\n    tag_163:\n        /* \"#utility.yul\":6145:6147   */\n      0x40\n        /* \"#utility.yul\":6140:6143   */\n      dup3\n        /* \"#utility.yul\":6136:6148   */\n      add\n        /* \"#utility.yul\":6129:6148   */\n      swap1\n      pop\n        /* \"#utility.yul\":5788:6154   */\n      swap2\n      swap1\n      pop\n      jump\t// out\n        /* \"#utility.yul\":6160:6579   */\n    tag_57:\n        /* \"#utility.yul\":6326:6330   */\n      0x00\n        /* \"#utility.yul\":6364:6366   */\n      0x20\n        /* \"#utility.yul\":6353:6362   */\n      dup3\n        /* \"#utility.yul\":6349:6367   */\n      add\n        /* \"#utility.yul\":6341:6367   */\n      swap1\n      pop\n        /* \"#utility.yul\":6413:6422   */\n      dup2\n        /* \"#utility.yul\":6407:6411   */\n      dup2\n        /* \"#utility.yul\":6403:6423   */\n      sub\n        /* \"#utility.yul\":6399:6400   */\n      0x00\n        /* \"#utility.yul\":6388:6397   */\n      dup4\n        /* \"#utility.yul\":6384:6401   */\n      add\n        /* \"#utility.yul\":6377:6424   */\n      mstore\n        /* \"#utility.yul\":6441:6572   */\n      tag_165\n        /* \"#utility.yul\":6567:6571   */\n      dup2\n        /* \"#utility.yul\":6441:6572   */\n      tag_95\n      jump\t// in\n    tag_165:\n        /* \"#utility.yul\":6433:6572   */\n      swap1\n      pop\n        /* \"#utility.yul\":6160:6579   */\n      swap2\n      swap1\n      pop\n      jump\t// out\n        /* \"#utility.yul\":6585:6753   */\n    tag_96:\n        /* \"#utility.yul\":6725:6745   */\n      0x4e6f7420656e6f7567682062616c616e63650000000000000000000000000000\n        /* \"#utility.yul\":6721:6722   */\n      0x00\n        /* \"#utility.yul\":6713:6719   */\n      dup3\n        /* \"#utility.yul\":6709:6723   */\n      add\n        /* \"#utility.yul\":6702:6746   */\n      mstore\n        /* \"#utility.yul\":6585:6753   */\n      pop\n      jump\t// out\n        /* \"#utility.yul\":6759:7125   */\n    tag_97:\n        /* \"#utility.yul\":6901:6904   */\n      0x00\n        /* \"#utility.yul\":6922:6989   */\n      tag_168\n        /* \"#utility.yul\":6986:6988   */\n      0x12\n        /* \"#utility.yul\":6981:6984   */\n      dup4\n        /* \"#utility.yul\":6922:6989   */\n      tag_88\n      jump\t// in\n    tag_168:\n        /* \"#utility.yul\":6915:6989   */\n      swap2\n      pop\n        /* \"#utility.yul\":6998:7091   */\n      tag_169\n        /* \"#utility.yul\":7087:7090   */\n      dup3\n        /* \"#utility.yul\":6998:7091   */\n      tag_96\n      jump\t// in\n    tag_169:\n        /* \"#utility.yul\":7116:7118   */\n      0x20\n        /* \"#utility.yul\":7111:7114   */\n      dup3\n        /* \"#utility.yul\":7107:7119   */\n      add\n        /* \"#utility.yul\":7100:7119   */\n      swap1\n      pop\n        /* \"#utility.yul\":6759:7125   */\n      swap2\n      swap1\n      pop\n      jump\t// out\n        /* \"#utility.yul\":7131:7550   */\n    tag_63:\n        /* \"#utility.yul\":7297:7301   */\n      0x00\n        /* \"#utility.yul\":7335:7337   */\n      0x20\n        /* \"#utility.yul\":7324:7333   */\n      dup3\n        /* \"#utility.yul\":7320:7338   */\n      add\n        /* \"#utility.yul\":7312:7338   */\n      swap1\n      pop\n        /* \"#utility.yul\":7384:7393   */\n      dup2\n        /* \"#utility.yul\":7378:7382   */\n      dup2\n        /* \"#utility.yul\":7374:7394   */\n      sub\n        /* \"#utility.yul\":7370:7371   */\n      0x00\n        /* \"#utility.yul\":7359:7368   */\n      dup4\n        /* \"#utility.yul\":7355:7372   */\n      add\n        /* \"#utility.yul\":7348:7395   */\n      mstore\n        /* \"#utility.yul\":7412:7543   */\n      tag_171\n        /* \"#utility.yul\":7538:7542   */\n      dup2\n        /* \"#utility.yul\":7412:7543   */\n      tag_97\n      jump\t// in\n    tag_171:\n        /* \"#utility.yul\":7404:7543   */\n      swap1\n      pop\n        /* \"#utility.yul\":7131:7550   */\n      swap2\n      swap1\n      pop\n      jump\t// out\n        /* \"#utility.yul\":7556:7735   */\n    tag_98:\n        /* \"#utility.yul\":7696:7727   */\n      0x4661696c656420746f207061792e20526566756e64696e67206761732e000000\n        /* \"#utility.yul\":7692:7693   */\n      0x00\n        /* \"#utility.yul\":7684:7690   */\n      dup3\n        /* \"#utility.yul\":7680:7694   */\n      add\n        /* \"#utility.yul\":7673:7728   */\n      mstore\n        /* \"#utility.yul\":7556:7735   */\n      pop\n      jump\t// out\n        /* \"#utility.yul\":7741:8107   */\n    tag_99:\n        /* \"#utility.yul\":7883:7886   */\n      0x00\n        /* \"#utility.yul\":7904:7971   */\n      tag_174\n        /* \"#utility.yul\":7968:7970   */\n      0x1d\n        /* \"#utility.yul\":7963:7966   */\n      dup4\n        /* \"#utility.yul\":7904:7971   */\n      tag_88\n      jump\t// in\n    tag_174:\n        /* \"#utility.yul\":7897:7971   */\n      swap2\n      pop\n        /* \"#utility.yul\":7980:8073   */\n      tag_175\n        /* \"#utility.yul\":8069:8072   */\n      dup3\n        /* \"#utility.yul\":7980:8073   */\n      tag_98\n      jump\t// in\n    tag_175:\n        /* \"#utility.yul\":8098:8100   */\n      0x20\n        /* \"#utility.yul\":8093:8096   */\n      dup3\n        /* \"#utility.yul\":8089:8101   */\n      add\n        /* \"#utility.yul\":8082:8101   */\n      swap1\n      pop\n        /* \"#utility.yul\":7741:8107   */\n      swap2\n      swap1\n      pop\n      jump\t// out\n        /* \"#utility.yul\":8113:8532   */\n    tag_73:\n        /* \"#utility.yul\":8279:8283   */\n      0x00\n        /* \"#utility.yul\":8317:8319   */\n      0x20\n        /* \"#utility.yul\":8306:8315   */\n      dup3\n        /* \"#utility.yul\":8302:8320   */\n      add\n        /* \"#utility.yul\":8294:8320   */\n      swap1\n      pop\n        /* \"#utility.yul\":8366:8375   */\n      dup2\n        /* \"#utility.yul\":8360:8364   */\n      dup2\n        /* \"#utility.yul\":8356:8376   */\n      sub\n        /* \"#utility.yul\":8352:8353   */\n      0x00\n        /* \"#utility.yul\":8341:8350   */\n      dup4\n        /* \"#utility.yul\":8337:8354   */\n      add\n        /* \"#utility.yul\":8330:8377   */\n      mstore\n        /* \"#utility.yul\":8394:8525   */\n      tag_177\n        /* \"#utility.yul\":8520:8524   */\n      dup2\n        /* \"#utility.yul\":8394:8525   */\n      tag_99\n      jump\t// in\n    tag_177:\n        /* \"#utility.yul\":8386:8525   */\n      swap1\n      pop\n        /* \"#utility.yul\":8113:8532   */\n      swap2\n      swap1\n      pop\n      jump\t// out\n\n    auxdata: 0xa26469706673582212205f972f7361a2788a50778247fb201dd7eb467eb0500f9330dd4847eb8b766fc664736f6c63430008120033\n}\n",
				"bytecode": {
					"linkReferences": {},
					"object": "608060405234801561001057600080fd5b50336000806101000a81548173ffffffffffffffffffffffffffffffffffffffff021916908373ffffffffffffffffffffffffffffffffffffffff160217905550610b81806100606000396000f3fe6080604052600436106100595760003560e01c806312065fe01461010c5780632e1a7d4d1461013757806335046722146101535780637b83b50b14610190578063c4076876146101bb578063d0e30db0146101d7576100b5565b366100b55734600160003373ffffffffffffffffffffffffffffffffffffffff1673ffffffffffffffffffffffffffffffffffffffff16815260200190815260200160002060008282546100ad919061073d565b925050819055005b34600160003373ffffffffffffffffffffffffffffffffffffffff1673ffffffffffffffffffffffffffffffffffffffff1681526020019081526020016000206000828254610104919061073d565b925050819055005b34801561011857600080fd5b506101216101e1565b60405161012e9190610780565b60405180910390f35b610151600480360381019061014c91906107cc565b610228565b005b34801561015f57600080fd5b5061017a60048036038101906101759190610857565b610441565b6040516101879190610780565b60405180910390f35b34801561019c57600080fd5b506101a561048a565b6040516101b29190610780565b60405180910390f35b6101d560048036038101906101d09190610884565b610492565b005b6101df6106ac565b005b6000600160003373ffffffffffffffffffffffffffffffffffffffff1673ffffffffffffffffffffffffffffffffffffffff16815260200190815260200160002054905090565b600160003373ffffffffffffffffffffffffffffffffffffffff1673ffffffffffffffffffffffffffffffffffffffff168152602001908152602001600020548111156102aa576040517f08c379a00000000000000000000000000000000000000000000000000000000081526004016102a190610947565b60405180910390fd5b600160003373ffffffffffffffffffffffffffffffffffffffff1673ffffffffffffffffffffffffffffffffffffffff16815260200190815260200160002054810361033a576000600160003373ffffffffffffffffffffffffffffffffffffffff1673ffffffffffffffffffffffffffffffffffffffff16815260200190815260200160002081905550610391565b80600160003373ffffffffffffffffffffffffffffffffffffffff1673ffffffffffffffffffffffffffffffffffffffff16815260200190815260200160002060008282546103899190610967565b925050819055505b60003373ffffffffffffffffffffffffffffffffffffffff16826040516103b7906109cc565b60006040518083038185875af1925050503d80600081146103f4576040519150601f19603f3d011682016040523d82523d6000602084013e6103f9565b606091505b505090508061043d576040517f08c379a000000000000000000000000000000000000000000000000000000000815260040161043490610a53565b60405180910390fd5b5050565b6000600160008373ffffffffffffffffffffffffffffffffffffffff1673ffffffffffffffffffffffffffffffffffffffff168152602001908152602001600020549050919050565b600047905090565b80600160003373ffffffffffffffffffffffffffffffffffffffff1673ffffffffffffffffffffffffffffffffffffffff168152602001908152602001600020541015610514576040517f08c379a000000000000000000000000000000000000000000000000000000000815260040161050b90610abf565b60405180910390fd5b600160003373ffffffffffffffffffffffffffffffffffffffff1673ffffffffffffffffffffffffffffffffffffffff1681526020019081526020016000205481036105a4576000600160003373ffffffffffffffffffffffffffffffffffffffff1673ffffffffffffffffffffffffffffffffffffffff168152602001908152602001600020819055506105fb565b80600160003373ffffffffffffffffffffffffffffffffffffffff1673ffffffffffffffffffffffffffffffffffffffff16815260200190815260200160002060008282546105f39190610967565b925050819055505b60008273ffffffffffffffffffffffffffffffffffffffff1682604051610621906109cc565b60006040518083038185875af1925050503d806000811461065e576040519150601f19603f3d011682016040523d82523d6000602084013e610663565b606091505b50509050806106a7576040517f08c379a000000000000000000000000000000000000000000000000000000000815260040161069e90610b2b565b60405180910390fd5b505050565b34600160003373ffffffffffffffffffffffffffffffffffffffff1673ffffffffffffffffffffffffffffffffffffffff16815260200190815260200160002060008282546106fb919061073d565b92505081905550565b6000819050919050565b7f4e487b7100000000000000000000000000000000000000000000000000000000600052601160045260246000fd5b600061074882610704565b915061075383610704565b925082820190508082111561076b5761076a61070e565b5b92915050565b61077a81610704565b82525050565b60006020820190506107956000830184610771565b92915050565b600080fd5b6107a981610704565b81146107b457600080fd5b50565b6000813590506107c6816107a0565b92915050565b6000602082840312156107e2576107e161079b565b5b60006107f0848285016107b7565b91505092915050565b600073ffffffffffffffffffffffffffffffffffffffff82169050919050565b6000610824826107f9565b9050919050565b61083481610819565b811461083f57600080fd5b50565b6000813590506108518161082b565b92915050565b60006020828403121561086d5761086c61079b565b5b600061087b84828501610842565b91505092915050565b6000806040838503121561089b5761089a61079b565b5b60006108a985828601610842565b92505060206108ba858286016107b7565b9150509250929050565b600082825260208201905092915050565b7f596f7572206163636f756e7420646f65736e277420636f6e7461696e7320746860008201527f617420616d6f756e74206f662062616c616e6365000000000000000000000000602082015250565b60006109316034836108c4565b915061093c826108d5565b604082019050919050565b6000602082019050818103600083015261096081610924565b9050919050565b600061097282610704565b915061097d83610704565b92508282039050818111156109955761099461070e565b5b92915050565b600081905092915050565b50565b60006109b660008361099b565b91506109c1826109a6565b600082019050919050565b60006109d7826109a9565b9150819050919050565b7f4661696c656420746f2077697468647261772e20526566756e64696e6720676160008201527f732e000000000000000000000000000000000000000000000000000000000000602082015250565b6000610a3d6022836108c4565b9150610a48826109e1565b604082019050919050565b60006020820190508181036000830152610a6c81610a30565b9050919050565b7f4e6f7420656e6f7567682062616c616e63650000000000000000000000000000600082015250565b6000610aa96012836108c4565b9150610ab482610a73565b602082019050919050565b60006020820190508181036000830152610ad881610a9c565b9050919050565b7f4661696c656420746f207061792e20526566756e64696e67206761732e000000600082015250565b6000610b15601d836108c4565b9150610b2082610adf565b602082019050919050565b60006020820190508181036000830152610b4481610b08565b905091905056fea26469706673582212205f972f7361a2788a50778247fb201dd7eb467eb0500f9330dd4847eb8b766fc664736f6c63430008120033",
					"opcodes": "PUSH1 0x80 PUSH1 0x40 MSTORE CALLVALUE DUP1 ISZERO PUSH2 0x10 JUMPI PUSH1 0x0 DUP1 REVERT JUMPDEST POP CALLER PUSH1 0x0 DUP1 PUSH2 0x100 EXP DUP2 SLOAD DUP2 PUSH20 0xFFFFFFFFFFFFFFFFFFFFFFFFFFFFFFFFFFFFFFFF MUL NOT AND SWAP1 DUP4 PUSH20 0xFFFFFFFFFFFFFFFFFFFFFFFFFFFFFFFFFFFFFFFF AND MUL OR SWAP1 SSTORE POP PUSH2 0xB81 DUP1 PUSH2 0x60 PUSH1 0x0 CODECOPY PUSH1 0x0 RETURN INVALID PUSH1 0x80 PUSH1 0x40 MSTORE PUSH1 0x4 CALLDATASIZE LT PUSH2 0x59 JUMPI PUSH1 0x0 CALLDATALOAD PUSH1 0xE0 SHR DUP1 PUSH4 0x12065FE0 EQ PUSH2 0x10C JUMPI DUP1 PUSH4 0x2E1A7D4D EQ PUSH2 0x137 JUMPI DUP1 PUSH4 0x35046722 EQ PUSH2 0x153 JUMPI DUP1 PUSH4 0x7B83B50B EQ PUSH2 0x190 JUMPI DUP1 PUSH4 0xC4076876 EQ PUSH2 0x1BB JUMPI DUP1 PUSH4 0xD0E30DB0 EQ PUSH2 0x1D7 JUMPI PUSH2 0xB5 JUMP JUMPDEST CALLDATASIZE PUSH2 0xB5 JUMPI CALLVALUE PUSH1 0x1 PUSH1 0x0 CALLER PUSH20 0xFFFFFFFFFFFFFFFFFFFFFFFFFFFFFFFFFFFFFFFF AND PUSH20 0xFFFFFFFFFFFFFFFFFFFFFFFFFFFFFFFFFFFFFFFF AND DUP2 MSTORE PUSH1 0x20 ADD SWAP1 DUP2 MSTORE PUSH1 0x20 ADD PUSH1 0x0 KECCAK256 PUSH1 0x0 DUP3 DUP3 SLOAD PUSH2 0xAD SWAP2 SWAP1 PUSH2 0x73D JUMP JUMPDEST SWAP3 POP POP DUP2 SWAP1 SSTORE STOP JUMPDEST CALLVALUE PUSH1 0x1 PUSH1 0x0 CALLER PUSH20 0xFFFFFFFFFFFFFFFFFFFFFFFFFFFFFFFFFFFFFFFF AND PUSH20 0xFFFFFFFFFFFFFFFFFFFFFFFFFFFFFFFFFFFFFFFF AND DUP2 MSTORE PUSH1 0x20 ADD SWAP1 DUP2 MSTORE PUSH1 0x20 ADD PUSH1 0x0 KECCAK256 PUSH1 0x0 DUP3 DUP3 SLOAD PUSH2 0x104 SWAP2 SWAP1 PUSH2 0x73D JUMP JUMPDEST SWAP3 POP POP DUP2 SWAP1 SSTORE STOP JUMPDEST CALLVALUE DUP1 ISZERO PUSH2 0x118 JUMPI PUSH1 0x0 DUP1 REVERT JUMPDEST POP PUSH2 0x121 PUSH2 0x1E1 JUMP JUMPDEST PUSH1 0x40 MLOAD PUSH2 0x12E SWAP2 SWAP1 PUSH2 0x780 JUMP JUMPDEST PUSH1 0x40 MLOAD DUP1 SWAP2 SUB SWAP1 RETURN JUMPDEST PUSH2 0x151 PUSH1 0x4 DUP1 CALLDATASIZE SUB DUP2 ADD SWAP1 PUSH2 0x14C SWAP2 SWAP1 PUSH2 0x7CC JUMP JUMPDEST PUSH2 0x228 JUMP JUMPDEST STOP JUMPDEST CALLVALUE DUP1 ISZERO PUSH2 0x15F JUMPI PUSH1 0x0 DUP1 REVERT JUMPDEST POP PUSH2 0x17A PUSH1 0x4 DUP1 CALLDATASIZE SUB DUP2 ADD SWAP1 PUSH2 0x175 SWAP2 SWAP1 PUSH2 0x857 JUMP JUMPDEST PUSH2 0x441 JUMP JUMPDEST PUSH1 0x40 MLOAD PUSH2 0x187 SWAP2 SWAP1 PUSH2 0x780 JUMP JUMPDEST PUSH1 0x40 MLOAD DUP1 SWAP2 SUB SWAP1 RETURN JUMPDEST CALLVALUE DUP1 ISZERO PUSH2 0x19C JUMPI PUSH1 0x0 DUP1 REVERT JUMPDEST POP PUSH2 0x1A5 PUSH2 0x48A JUMP JUMPDEST PUSH1 0x40 MLOAD PUSH2 0x1B2 SWAP2 SWAP1 PUSH2 0x780 JUMP JUMPDEST PUSH1 0x40 MLOAD DUP1 SWAP2 SUB SWAP1 RETURN JUMPDEST PUSH2 0x1D5 PUSH1 0x4 DUP1 CALLDATASIZE SUB DUP2 ADD SWAP1 PUSH2 0x1D0 SWAP2 SWAP1 PUSH2 0x884 JUMP JUMPDEST PUSH2 0x492 JUMP JUMPDEST STOP JUMPDEST PUSH2 0x1DF PUSH2 0x6AC JUMP JUMPDEST STOP JUMPDEST PUSH1 0x0 PUSH1 0x1 PUSH1 0x0 CALLER PUSH20 0xFFFFFFFFFFFFFFFFFFFFFFFFFFFFFFFFFFFFFFFF AND PUSH20 0xFFFFFFFFFFFFFFFFFFFFFFFFFFFFFFFFFFFFFFFF AND DUP2 MSTORE PUSH1 0x20 ADD SWAP1 DUP2 MSTORE PUSH1 0x20 ADD PUSH1 0x0 KECCAK256 SLOAD SWAP1 POP SWAP1 JUMP JUMPDEST PUSH1 0x1 PUSH1 0x0 CALLER PUSH20 0xFFFFFFFFFFFFFFFFFFFFFFFFFFFFFFFFFFFFFFFF AND PUSH20 0xFFFFFFFFFFFFFFFFFFFFFFFFFFFFFFFFFFFFFFFF AND DUP2 MSTORE PUSH1 0x20 ADD SWAP1 DUP2 MSTORE PUSH1 0x20 ADD PUSH1 0x0 KECCAK256 SLOAD DUP2 GT ISZERO PUSH2 0x2AA JUMPI PUSH1 0x40 MLOAD PUSH32 0x8C379A000000000000000000000000000000000000000000000000000000000 DUP2 MSTORE PUSH1 0x4 ADD PUSH2 0x2A1 SWAP1 PUSH2 0x947 JUMP JUMPDEST PUSH1 0x40 MLOAD DUP1 SWAP2 SUB SWAP1 REVERT JUMPDEST PUSH1 0x1 PUSH1 0x0 CALLER PUSH20 0xFFFFFFFFFFFFFFFFFFFFFFFFFFFFFFFFFFFFFFFF AND PUSH20 0xFFFFFFFFFFFFFFFFFFFFFFFFFFFFFFFFFFFFFFFF AND DUP2 MSTORE PUSH1 0x20 ADD SWAP1 DUP2 MSTORE PUSH1 0x20 ADD PUSH1 0x0 KECCAK256 SLOAD DUP2 SUB PUSH2 0x33A JUMPI PUSH1 0x0 PUSH1 0x1 PUSH1 0x0 CALLER PUSH20 0xFFFFFFFFFFFFFFFFFFFFFFFFFFFFFFFFFFFFFFFF AND PUSH20 0xFFFFFFFFFFFFFFFFFFFFFFFFFFFFFFFFFFFFFFFF AND DUP2 MSTORE PUSH1 0x20 ADD SWAP1 DUP2 MSTORE PUSH1 0x20 ADD PUSH1 0x0 KECCAK256 DUP2 SWAP1 SSTORE POP PUSH2 0x391 JUMP JUMPDEST DUP1 PUSH1 0x1 PUSH1 0x0 CALLER PUSH20 0xFFFFFFFFFFFFFFFFFFFFFFFFFFFFFFFFFFFFFFFF AND PUSH20 0xFFFFFFFFFFFFFFFFFFFFFFFFFFFFFFFFFFFFFFFF AND DUP2 MSTORE PUSH1 0x20 ADD SWAP1 DUP2 MSTORE PUSH1 0x20 ADD PUSH1 0x0 KECCAK256 PUSH1 0x0 DUP3 DUP3 SLOAD PUSH2 0x389 SWAP2 SWAP1 PUSH2 0x967 JUMP JUMPDEST SWAP3 POP POP DUP2 SWAP1 SSTORE POP JUMPDEST PUSH1 0x0 CALLER PUSH20 0xFFFFFFFFFFFFFFFFFFFFFFFFFFFFFFFFFFFFFFFF AND DUP3 PUSH1 0x40 MLOAD PUSH2 0x3B7 SWAP1 PUSH2 0x9CC JUMP JUMPDEST PUSH1 0x0 PUSH1 0x40 MLOAD DUP1 DUP4 SUB DUP2 DUP6 DUP8 GAS CALL SWAP3 POP POP POP RETURNDATASIZE DUP1 PUSH1 0x0 DUP2 EQ PUSH2 0x3F4 JUMPI PUSH1 0x40 MLOAD SWAP2 POP PUSH1 0x1F NOT PUSH1 0x3F RETURNDATASIZE ADD AND DUP3 ADD PUSH1 0x40 MSTORE RETURNDATASIZE DUP3 MSTORE RETURNDATASIZE PUSH1 0x0 PUSH1 0x20 DUP5 ADD RETURNDATACOPY PUSH2 0x3F9 JUMP JUMPDEST PUSH1 0x60 SWAP2 POP JUMPDEST POP POP SWAP1 POP DUP1 PUSH2 0x43D JUMPI PUSH1 0x40 MLOAD PUSH32 0x8C379A000000000000000000000000000000000000000000000000000000000 DUP2 MSTORE PUSH1 0x4 ADD PUSH2 0x434 SWAP1 PUSH2 0xA53 JUMP JUMPDEST PUSH1 0x40 MLOAD DUP1 SWAP2 SUB SWAP1 REVERT JUMPDEST POP POP JUMP JUMPDEST PUSH1 0x0 PUSH1 0x1 PUSH1 0x0 DUP4 PUSH20 0xFFFFFFFFFFFFFFFFFFFFFFFFFFFFFFFFFFFFFFFF AND PUSH20 0xFFFFFFFFFFFFFFFFFFFFFFFFFFFFFFFFFFFFFFFF AND DUP2 MSTORE PUSH1 0x20 ADD SWAP1 DUP2 MSTORE PUSH1 0x20 ADD PUSH1 0x0 KECCAK256 SLOAD SWAP1 POP SWAP2 SWAP1 POP JUMP JUMPDEST PUSH1 0x0 SELFBALANCE SWAP1 POP SWAP1 JUMP JUMPDEST DUP1 PUSH1 0x1 PUSH1 0x0 CALLER PUSH20 0xFFFFFFFFFFFFFFFFFFFFFFFFFFFFFFFFFFFFFFFF AND PUSH20 0xFFFFFFFFFFFFFFFFFFFFFFFFFFFFFFFFFFFFFFFF AND DUP2 MSTORE PUSH1 0x20 ADD SWAP1 DUP2 MSTORE PUSH1 0x20 ADD PUSH1 0x0 KECCAK256 SLOAD LT ISZERO PUSH2 0x514 JUMPI PUSH1 0x40 MLOAD PUSH32 0x8C379A000000000000000000000000000000000000000000000000000000000 DUP2 MSTORE PUSH1 0x4 ADD PUSH2 0x50B SWAP1 PUSH2 0xABF JUMP JUMPDEST PUSH1 0x40 MLOAD DUP1 SWAP2 SUB SWAP1 REVERT JUMPDEST PUSH1 0x1 PUSH1 0x0 CALLER PUSH20 0xFFFFFFFFFFFFFFFFFFFFFFFFFFFFFFFFFFFFFFFF AND PUSH20 0xFFFFFFFFFFFFFFFFFFFFFFFFFFFFFFFFFFFFFFFF AND DUP2 MSTORE PUSH1 0x20 ADD SWAP1 DUP2 MSTORE PUSH1 0x20 ADD PUSH1 0x0 KECCAK256 SLOAD DUP2 SUB PUSH2 0x5A4 JUMPI PUSH1 0x0 PUSH1 0x1 PUSH1 0x0 CALLER PUSH20 0xFFFFFFFFFFFFFFFFFFFFFFFFFFFFFFFFFFFFFFFF AND PUSH20 0xFFFFFFFFFFFFFFFFFFFFFFFFFFFFFFFFFFFFFFFF AND DUP2 MSTORE PUSH1 0x20 ADD SWAP1 DUP2 MSTORE PUSH1 0x20 ADD PUSH1 0x0 KECCAK256 DUP2 SWAP1 SSTORE POP PUSH2 0x5FB JUMP JUMPDEST DUP1 PUSH1 0x1 PUSH1 0x0 CALLER PUSH20 0xFFFFFFFFFFFFFFFFFFFFFFFFFFFFFFFFFFFFFFFF AND PUSH20 0xFFFFFFFFFFFFFFFFFFFFFFFFFFFFFFFFFFFFFFFF AND DUP2 MSTORE PUSH1 0x20 ADD SWAP1 DUP2 MSTORE PUSH1 0x20 ADD PUSH1 0x0 KECCAK256 PUSH1 0x0 DUP3 DUP3 SLOAD PUSH2 0x5F3 SWAP2 SWAP1 PUSH2 0x967 JUMP JUMPDEST SWAP3 POP POP DUP2 SWAP1 SSTORE POP JUMPDEST PUSH1 0x0 DUP3 PUSH20 0xFFFFFFFFFFFFFFFFFFFFFFFFFFFFFFFFFFFFFFFF AND DUP3 PUSH1 0x40 MLOAD PUSH2 0x621 SWAP1 PUSH2 0x9CC JUMP JUMPDEST PUSH1 0x0 PUSH1 0x40 MLOAD DUP1 DUP4 SUB DUP2 DUP6 DUP8 GAS CALL SWAP3 POP POP POP RETURNDATASIZE DUP1 PUSH1 0x0 DUP2 EQ PUSH2 0x65E JUMPI PUSH1 0x40 MLOAD SWAP2 POP PUSH1 0x1F NOT PUSH1 0x3F RETURNDATASIZE ADD AND DUP3 ADD PUSH1 0x40 MSTORE RETURNDATASIZE DUP3 MSTORE RETURNDATASIZE PUSH1 0x0 PUSH1 0x20 DUP5 ADD RETURNDATACOPY PUSH2 0x663 JUMP JUMPDEST PUSH1 0x60 SWAP2 POP JUMPDEST POP POP SWAP1 POP DUP1 PUSH2 0x6A7 JUMPI PUSH1 0x40 MLOAD PUSH32 0x8C379A000000000000000000000000000000000000000000000000000000000 DUP2 MSTORE PUSH1 0x4 ADD PUSH2 0x69E SWAP1 PUSH2 0xB2B JUMP JUMPDEST PUSH1 0x40 MLOAD DUP1 SWAP2 SUB SWAP1 REVERT JUMPDEST POP POP POP JUMP JUMPDEST CALLVALUE PUSH1 0x1 PUSH1 0x0 CALLER PUSH20 0xFFFFFFFFFFFFFFFFFFFFFFFFFFFFFFFFFFFFFFFF AND PUSH20 0xFFFFFFFFFFFFFFFFFFFFFFFFFFFFFFFFFFFFFFFF AND DUP2 MSTORE PUSH1 0x20 ADD SWAP1 DUP2 MSTORE PUSH1 0x20 ADD PUSH1 0x0 KECCAK256 PUSH1 0x0 DUP3 DUP3 SLOAD PUSH2 0x6FB SWAP2 SWAP1 PUSH2 0x73D JUMP JUMPDEST SWAP3 POP POP DUP2 SWAP1 SSTORE POP JUMP JUMPDEST PUSH1 0x0 DUP2 SWAP1 POP SWAP2 SWAP1 POP JUMP JUMPDEST PUSH32 0x4E487B7100000000000000000000000000000000000000000000000000000000 PUSH1 0x0 MSTORE PUSH1 0x11 PUSH1 0x4 MSTORE PUSH1 0x24 PUSH1 0x0 REVERT JUMPDEST PUSH1 0x0 PUSH2 0x748 DUP3 PUSH2 0x704 JUMP JUMPDEST SWAP2 POP PUSH2 0x753 DUP4 PUSH2 0x704 JUMP JUMPDEST SWAP3 POP DUP3 DUP3 ADD SWAP1 POP DUP1 DUP3 GT ISZERO PUSH2 0x76B JUMPI PUSH2 0x76A PUSH2 0x70E JUMP JUMPDEST JUMPDEST SWAP3 SWAP2 POP POP JUMP JUMPDEST PUSH2 0x77A DUP2 PUSH2 0x704 JUMP JUMPDEST DUP3 MSTORE POP POP JUMP JUMPDEST PUSH1 0x0 PUSH1 0x20 DUP3 ADD SWAP1 POP PUSH2 0x795 PUSH1 0x0 DUP4 ADD DUP5 PUSH2 0x771 JUMP JUMPDEST SWAP3 SWAP2 POP POP JUMP JUMPDEST PUSH1 0x0 DUP1 REVERT JUMPDEST PUSH2 0x7A9 DUP2 PUSH2 0x704 JUMP JUMPDEST DUP2 EQ PUSH2 0x7B4 JUMPI PUSH1 0x0 DUP1 REVERT JUMPDEST POP JUMP JUMPDEST PUSH1 0x0 DUP2 CALLDATALOAD SWAP1 POP PUSH2 0x7C6 DUP2 PUSH2 0x7A0 JUMP JUMPDEST SWAP3 SWAP2 POP POP JUMP JUMPDEST PUSH1 0x0 PUSH1 0x20 DUP3 DUP5 SUB SLT ISZERO PUSH2 0x7E2 JUMPI PUSH2 0x7E1 PUSH2 0x79B JUMP JUMPDEST JUMPDEST PUSH1 0x0 PUSH2 0x7F0 DUP5 DUP3 DUP6 ADD PUSH2 0x7B7 JUMP JUMPDEST SWAP2 POP POP SWAP3 SWAP2 POP POP JUMP JUMPDEST PUSH1 0x0 PUSH20 0xFFFFFFFFFFFFFFFFFFFFFFFFFFFFFFFFFFFFFFFF DUP3 AND SWAP1 POP SWAP2 SWAP1 POP JUMP JUMPDEST PUSH1 0x0 PUSH2 0x824 DUP3 PUSH2 0x7F9 JUMP JUMPDEST SWAP1 POP SWAP2 SWAP1 POP JUMP JUMPDEST PUSH2 0x834 DUP2 PUSH2 0x819 JUMP JUMPDEST DUP2 EQ PUSH2 0x83F JUMPI PUSH1 0x0 DUP1 REVERT JUMPDEST POP JUMP JUMPDEST PUSH1 0x0 DUP2 CALLDATALOAD SWAP1 POP PUSH2 0x851 DUP2 PUSH2 0x82B JUMP JUMPDEST SWAP3 SWAP2 POP POP JUMP JUMPDEST PUSH1 0x0 PUSH1 0x20 DUP3 DUP5 SUB SLT ISZERO PUSH2 0x86D JUMPI PUSH2 0x86C PUSH2 0x79B JUMP JUMPDEST JUMPDEST PUSH1 0x0 PUSH2 0x87B DUP5 DUP3 DUP6 ADD PUSH2 0x842 JUMP JUMPDEST SWAP2 POP POP SWAP3 SWAP2 POP POP JUMP JUMPDEST PUSH1 0x0 DUP1 PUSH1 0x40 DUP4 DUP6 SUB SLT ISZERO PUSH2 0x89B JUMPI PUSH2 0x89A PUSH2 0x79B JUMP JUMPDEST JUMPDEST PUSH1 0x0 PUSH2 0x8A9 DUP6 DUP3 DUP7 ADD PUSH2 0x842 JUMP JUMPDEST SWAP3 POP POP PUSH1 0x20 PUSH2 0x8BA DUP6 DUP3 DUP7 ADD PUSH2 0x7B7 JUMP JUMPDEST SWAP2 POP POP SWAP3 POP SWAP3 SWAP1 POP JUMP JUMPDEST PUSH1 0x0 DUP3 DUP3 MSTORE PUSH1 0x20 DUP3 ADD SWAP1 POP SWAP3 SWAP2 POP POP JUMP JUMPDEST PUSH32 0x596F7572206163636F756E7420646F65736E277420636F6E7461696E73207468 PUSH1 0x0 DUP3 ADD MSTORE PUSH32 0x617420616D6F756E74206F662062616C616E6365000000000000000000000000 PUSH1 0x20 DUP3 ADD MSTORE POP JUMP JUMPDEST PUSH1 0x0 PUSH2 0x931 PUSH1 0x34 DUP4 PUSH2 0x8C4 JUMP JUMPDEST SWAP2 POP PUSH2 0x93C DUP3 PUSH2 0x8D5 JUMP JUMPDEST PUSH1 0x40 DUP3 ADD SWAP1 POP SWAP2 SWAP1 POP JUMP JUMPDEST PUSH1 0x0 PUSH1 0x20 DUP3 ADD SWAP1 POP DUP2 DUP2 SUB PUSH1 0x0 DUP4 ADD MSTORE PUSH2 0x960 DUP2 PUSH2 0x924 JUMP JUMPDEST SWAP1 POP SWAP2 SWAP1 POP JUMP JUMPDEST PUSH1 0x0 PUSH2 0x972 DUP3 PUSH2 0x704 JUMP JUMPDEST SWAP2 POP PUSH2 0x97D DUP4 PUSH2 0x704 JUMP JUMPDEST SWAP3 POP DUP3 DUP3 SUB SWAP1 POP DUP2 DUP2 GT ISZERO PUSH2 0x995 JUMPI PUSH2 0x994 PUSH2 0x70E JUMP JUMPDEST JUMPDEST SWAP3 SWAP2 POP POP JUMP JUMPDEST PUSH1 0x0 DUP2 SWAP1 POP SWAP3 SWAP2 POP POP JUMP JUMPDEST POP JUMP JUMPDEST PUSH1 0x0 PUSH2 0x9B6 PUSH1 0x0 DUP4 PUSH2 0x99B JUMP JUMPDEST SWAP2 POP PUSH2 0x9C1 DUP3 PUSH2 0x9A6 JUMP JUMPDEST PUSH1 0x0 DUP3 ADD SWAP1 POP SWAP2 SWAP1 POP JUMP JUMPDEST PUSH1 0x0 PUSH2 0x9D7 DUP3 PUSH2 0x9A9 JUMP JUMPDEST SWAP2 POP DUP2 SWAP1 POP SWAP2 SWAP1 POP JUMP JUMPDEST PUSH32 0x4661696C656420746F2077697468647261772E20526566756E64696E67206761 PUSH1 0x0 DUP3 ADD MSTORE PUSH32 0x732E000000000000000000000000000000000000000000000000000000000000 PUSH1 0x20 DUP3 ADD MSTORE POP JUMP JUMPDEST PUSH1 0x0 PUSH2 0xA3D PUSH1 0x22 DUP4 PUSH2 0x8C4 JUMP JUMPDEST SWAP2 POP PUSH2 0xA48 DUP3 PUSH2 0x9E1 JUMP JUMPDEST PUSH1 0x40 DUP3 ADD SWAP1 POP SWAP2 SWAP1 POP JUMP JUMPDEST PUSH1 0x0 PUSH1 0x20 DUP3 ADD SWAP1 POP DUP2 DUP2 SUB PUSH1 0x0 DUP4 ADD MSTORE PUSH2 0xA6C DUP2 PUSH2 0xA30 JUMP JUMPDEST SWAP1 POP SWAP2 SWAP1 POP JUMP JUMPDEST PUSH32 0x4E6F7420656E6F7567682062616C616E63650000000000000000000000000000 PUSH1 0x0 DUP3 ADD MSTORE POP JUMP JUMPDEST PUSH1 0x0 PUSH2 0xAA9 PUSH1 0x12 DUP4 PUSH2 0x8C4 JUMP JUMPDEST SWAP2 POP PUSH2 0xAB4 DUP3 PUSH2 0xA73 JUMP JUMPDEST PUSH1 0x20 DUP3 ADD SWAP1 POP SWAP2 SWAP1 POP JUMP JUMPDEST PUSH1 0x0 PUSH1 0x20 DUP3 ADD SWAP1 POP DUP2 DUP2 SUB PUSH1 0x0 DUP4 ADD MSTORE PUSH2 0xAD8 DUP2 PUSH2 0xA9C JUMP JUMPDEST SWAP1 POP SWAP2 SWAP1 POP JUMP JUMPDEST PUSH32 0x4661696C656420746F207061792E20526566756E64696E67206761732E000000 PUSH1 0x0 DUP3 ADD MSTORE POP JUMP JUMPDEST PUSH1 0x0 PUSH2 0xB15 PUSH1 0x1D DUP4 PUSH2 0x8C4 JUMP JUMPDEST SWAP2 POP PUSH2 0xB20 DUP3 PUSH2 0xADF JUMP JUMPDEST PUSH1 0x20 DUP3 ADD SWAP1 POP SWAP2 SWAP1 POP JUMP JUMPDEST PUSH1 0x0 PUSH1 0x20 DUP3 ADD SWAP1 POP DUP2 DUP2 SUB PUSH1 0x0 DUP4 ADD MSTORE PUSH2 0xB44 DUP2 PUSH2 0xB08 JUMP JUMPDEST SWAP1 POP SWAP2 SWAP1 POP JUMP INVALID LOG2 PUSH5 0x6970667358 0x22 SLT KECCAK256 0x5F SWAP8 0x2F PUSH20 0x61A2788A50778247FB201DD7EB467EB0500F9330 0xDD BASEFEE SELFBALANCE 0xEB DUP12 PUSH23 0x6FC664736F6C6343000812003300000000000000000000 "
				},
				"gasEstimates": {
					"creation": {
						"codeDepositCost": "589000",
						"executionCost": "24891",
						"totalCost": "613891"
					},
					"external": {
						"": "infinite",
						"deposit()": "infinite",
						"getAddressBalance(address)": "2863",
						"getBalance()": "2504",
						"getBankBalance()": "383",
						"pay(address,uint256)": "infinite",
						"withdraw(uint256)": "infinite"
					}
				},
				"methodIdentifiers": {
					"deposit()": "d0e30db0",
					"getAddressBalance(address)": "35046722",
					"getBalance()": "12065fe0",
					"getBankBalance()": "7b83b50b",
					"pay(address,uint256)": "c4076876",
					"withdraw(uint256)": "2e1a7d4d"
				}
			},
			"storageLayout": {
				"storage": [
					{
						"astId": 3,
						"contract": "Account.sol:Account",
						"label": "owner",
						"offset": 0,
						"slot": "0",
						"type": "t_address"
					},
					{
						"astId": 7,
						"contract": "Account.sol:Account",
						"label": "map",
						"offset": 0,
						"slot": "1",
						"type": "t_mapping(t_address,t_uint256)"
					}
				],
				"types": {
					"t_address": {
						"encoding": "inplace",
						"label": "address",
						"numberOfBytes": "20"
					},
					"t_mapping(t_address,t_uint256)": {
						"encoding": "mapping",
						"key": "t_address",
						"label": "mapping(address => uint256)",
						"numberOfBytes": "32",
						"value": "t_uint256"
					},
					"t_uint256": {
						"encoding": "inplace",
						"label": "uint256",
						"numberOfBytes": "32"
					}
				}
			},
			"userdoc": {
				"kind": "user",
				"methods": {},
				"version": 1
			}
		}
	}
}